:060000000A128A11122809
:10000800FE00030EF6000408F7000A08F800831241
:1000180003137F08F9000A128A15CC2E0A128A11D6
:100028001528FA01FB01FC01FD018313A0308400AF
:10003800B2300A128A11F82783010A128A152E2D66
:100048000A128A154D260A128A11831203132108EF
:10005800EC002008EB0002306C02393003196B0207
:100068000318652801306C02913003196B02031CD8
:1000780065280A30A2000030A3006B08203EA000CB
:100088006C080318013EFD3EA1000A128A15D1250D
:100098000A128A11831203132108A9002008A80054
:1000A8000A128A1589250A128A118312031328084D
:1000B800CC002908CD002A08CE003330C9003330DF
:1000C800AD2801306C02913003196B020318B02877
:1000D80000306C02E43003196B02031CB0286C0872
:1000E800A9006B08A8000A128A1589250A128A1124
:1000F800831203132808AF002908B0002A08B100AA
:10010800E030AC002430AD00C430AE000A128A11D1
:10011800AC230A128A11831203132C08BC002D0881
:10012800BD002E08BE000030B9002030BA004130B2
:10013800BB000A128A11B5240A128A11831203130A
:100148003908CC003A08CD003B08CE006630C9001B
:100158000A30CA00C130E72900306C02E4300319C4
:100168006B020318E82800306C02BC3003196B02DC
:10017800031CE8280A30A2000030A3006B08B93E2F
:10018800A0006C080318013EFE3EA1000A128A1561
:10019800D1250A128A11831203132108A900200805
:1001A800A8000A128A1589250A128A1183120313D4
:1001B8002808CC002908CD002A08CE000030C90044
:1001C8000030CA00C030E72900306C02BC30031987
:1001D8006B020318312900306C02973003196B0247
:1001E800031C31296C08A9006B08A8000A128A159B
:1001F80089250A128A11831203132808AF002908D7
:10020800B0002A08B1004030AC009E30AD00C330C9
:10021800AE000A128A11AC230A128A118312031340
:100228002C08BC002D08BD002E08BE000030B90007
:100238002030BA004130BB000A128A11B5240A12D4
:100248008A11831203133908CC003A08CD003B0801
:10025800CE00CD30C900EC30E52900306C02973073
:1002680003196B020318672900306C027D300319EB
:100278006B02031C67290A30A2000030A3006B0838
:10028800F53EA0006C080318013EFE3EA1000A12CC
:100298008A15D1250A128A11831203132108A9008D
:1002A8002008A8000A128A1589250A128A118312C1
:1002B80003132808CC002908CD002A08CE00663090
:1002C800C900A630E52900306C027E3003196B02A4
:1002D80003189D2900306C026F3003196B02031C50
:1002E8009D290A30A2000030A3006B08373EA00009
:1002F8006C080318013EFF3EA1000A128A15D12599
:100308000A128A11831203132108A9002008A800E1
:100318000A128A1589250A128A11831203132808DA
:10032800CC002908CD002A08CE003330C90033306C
:10033800E52900306C026F3003196B020318012A9B
:1003480000306C025B3003196B02031C012A6C0835
:10035800A9006B08A8000A128A1589250A128A11B1
:10036800831203132808AF002908B0002A08B10037
:100378000030AC006330AD00C330AE000A128A1101
:10038800AC230A128A11831203132C08BC002D080F
:10039800BD002E08BE000030B9002030BA00413040
:1003A800BB000A128A11B5240A128A118312031398
:1003B8003908CC003A08CD003B08CE006630C900A9
:1003C8006630CA00BF30CB000A128A1188250A128B
:1003D8008A11831203134908D9004A08DA004B0826
:1003E800DB000A128A1572270A128A118312031374
:1003F8005A08EA005908E900052ADC30E900053006
:10040800EA006A08E8006908E70008008312031395
:100418006D086E04031D1B2A83160313A401A5018E
:10042800AC01AD01A001A101AE01AF01F52A831213
:100438006E08803AFF0058307F02031D252AF130EC
:100448006D02031C882A83120313EE1F882A6D0984
:1004580083160313B200831203136E098316031362
:10046800B300B20A0319B30A3208B4003308B5005E
:100478003508A5003408A400AC01AD01A001A10114
:10048800AE01AF01003025020A3003192402031C13
:100498006A2A2408F63EA40025080318013EFF3EF8
:1004A800A5000130AC070318AD0A0030AD07462A95
:1004B8002C08F63EAC002D080318013EFF3EAD00A7
:1004C8000130A0070318A10A0030A10700302D024F
:1004D8000A3003192C02031C802A5C2A2008F63EE5
:1004E800A00021080318013EFF3EA1000130AE071D
:1004F8000318AF0A0030AF07003021020A30031991
:100508002002031CF52A722A831203136E08803A0C
:10051800FF0080307F02031D932A01306D02031C07
:10052800F52A831203136E08803AFF00A7307F0272
:10053800031DA02A10306D020318F52A8312031335
:100548006E0883160313A500831203136D08831620
:100558000313A400AC01AD01A001A101AE01AF01DC
:10056800003025020A3003192402031CD82A240863
:10057800F63EA40025080318013EFF3EA500013001
:10058800AC070318AD0A0030AD07B42A2C08F63EB4
:10059800AC002D080318013EFF3EAD000130A00756
:1005A8000318A10A0030A10700302D020A300319F0
:1005B8002C02031CEE2ACA2A2008F63EA0002108B5
:1005C8000318013EFF3EA1000130AE070318AF0A31
:1005D8000030AF07003021020A3003192002031847
:1005E800E02A831203136F03031D842B6E08803ADD
:1005F800FF0080307F02031D032B01306D02031CB6
:100608002E2B2B300A128A15DF240A128A11831620
:1006180003132E08303E0A128A15DF240A128A11A3
:10062800831603132008303E0A128A15DF240A12A3
:100638008A11831603132C08303E0A128A15DF2408
:100648000A128A11831603132408303E0A128A15E7
:10065800DF24080083120313EE1F5B2B2D300A12D0
:100668008A15DF240A128A11831603132E08303ED6
:100678000A128A15DF240A128A1183160313200826
:10068800303E0A128A15DF240A128A1183160313D0
:100698002C08303E0A128A15DF240A128A118316A2
:1006A80003132408303E0A128A15DF240800831237
:1006B80003136D086E04031D0800831603132E0828
:1006C800303E0A128A15DF240A128A118316031390
:1006D8002008303E0A128A15DF240A128A1183166E
:1006E80003132C08303E0A128A15DF240A128A11D5
:1006F800831603132408303E0A128A15DF240800E3
:10070800831203136F08031D0800831603132E08B2
:10071800303E0A128A15DF240A128A11831603133F
:100728002008303E0A128A15DF240A128A1183161D
:1007380003132C08303E0A128A15DF240A128A1184
:10074800831603132408303E0A128A15DF24080092
:10075800831203132C08B2002D08B3002E08B4002E
:100768000310330D340DB5003508B8002F08B2005A
:100778003008B3003108B4000310330D340DB50050
:100788003508B70038080319D52B3708380203187D
:10079800DC2B3803FF3A3707B20019303202031C4A
:1007A800DC2B2F08AC003008AD003108AE00080083
:1007B800370803190800380837020318EB2B3703EA
:1007C800FF3A3807B2001930320203180800063021
:1007D800B2003208B600AE1BB617B11B3617AD17FC
:1007E800FF30AC05FF30AD050030AE05B017FF3067
:1007F800AF05FF30B0050030B105370838020318DF
:100808002B2C01300310AF0DB00DB10DFF3E031DB1
:10081800062C0130B702370838060319262C013098
:10082800B602360807390319262C052C01300310A7
:10083800AE0CAD0CAC0CFF3E031D1B2C0130B200FE
:100848003208B807380837060319542C1A2C380808
:1008580037020318542C01300310AC0DAD0DAE0D4A
:10086800FF3E031D302C0130B80237083806031943
:10087800502C0130B602360807390319502C2F2C9A
:1008880001300310B10CB00CAF0CFF3E031D452C1A
:100898000130B2003208B70738083706031D442C68
:1008A800B61F662CFF30AC06FF30AD06FF30AE0633
:1008B8000130AC07003003180130AD0700300318D1
:1008C8000130AE07361F782CFF30AF06FF30B00678
:1008D800FF30B1060130AF07003003180130B00710
:1008E800003003180130B107B6012C08AF072D08F6
:1008F800031103182D0A031DB0072E08031103184E
:100908002E0A031DB107B11F9B2CFF30AF06FF3025
:10091800B006FF30B1060130AF07003003180130D0
:10092800B007003003180130B107B601B60A2F0826
:10093800A0003008A1003108A2003808B20032082F
:10094800A3003608B3003308A4000A128A118127CD
:10095800831203132008AC002108AD002208AE0062
:100968000800831203133908BF003A08C0003B0887
:10097800C1000310400D410DC2004208C3004308E6
:10098800031DCD2C0030B9000030BA000030BB0088
:1009980008003C08BF003D08C0003E08C100031025
:1009A800400D410DC2004208C8004808031DE32C51
:1009B8000030B9000030BA000030BB000800480819
:1009C8007B3EBF003F08C3073908BF003A08C00094
:1009D8003B08C10010300310C10CC00CBF0CFF3E17
:1009E800031DEF2C3F08C2004208C8003C08BF00A6
:1009F8003D08C0003E08C10010300310C10CC00CF7
:100A0800BF0CFF3E031D012D3F08C2004208C80667
:100A18008030BF003F08C805BA17BD17FF30BC05B6
:100A2800FF30BD050030BE050030C4000030C500F1
:100A38000030C6000730BF003F08C700391C322D00
:100A48003C08C4073D08031103183D0A031DC507E8
:100A58003E08031103183E0A031DC60701300310A0
:100A6800BB0CBA0CB90CFF3E031D332D013003102B
:100A7800BC0DBD0DBE0DFF3E031D3B2D0130C70251
:100A8800031D222D0930BF003F08C700391C5A2D0D
:100A98003C08C4073D08031103183D0A031DC50798
:100AA8003E08031103183E0A031DC6070130031050
:100AB800BB0CBA0CB90CFF3E031D5B2D01300310B3
:100AC800C60CC50CC40CFF3E031D632D0130C702C4
:100AD800031D4A2D4408A0004508A1004608A200AD
:100AE8004308BF003F08A3004808C0004008A4000E
:100AF8000A128A118127831203132008B9002108DA
:100B0800BA002208BB000800831203134C08CF0068
:100B18004D08D0004E08D1000310500D510DD200E1
:100B28005208D7005708031DA02D0030C900003017
:100B3800CA000030CB0008004908CF004A08D0009E
:100B48004B08D1000310500D510DD2005208D800A7
:100B58005808031DB62D0030C9000030CA00003007
:100B6800CB0008000030D4000030D5000030D6009B
:100B780089305807CF004F08D7024C08CF004D08DE
:100B8800D0004E08D10010300310D10CD00CCF0C7F
:100B9800FF3E031DC82D4F08D2005208D80049084F
:100BA800CF004A08D0004B08D10010300310D10CF8
:100BB800D00CCF0CFF3E031DDA2D4F08D20052088F
:100BC800D8068030CF004F08D805CD17FF30CC05A8
:100BD800FF30CD050030CE05CA17FF30C905FF30FC
:100BE800CA050030CB051830CF004F08D3000130BC
:100BF8000310D40DD50DD60DFF3E031DFC2D4B085B
:100C08004E02031D0D2E4A084D02031D0D2E4908E4
:100C18004C02031C1A2E4908CC024A08031C4A0F2E
:100C2800CD024B08031C4B0ACE02541401300310AA
:100C3800CC0DCD0DCE0DFF3E031D1B2E0130D30272
:100C4800031DFB2D5408A0005508A1005608A2005A
:100C58005708CF004F08A3005808D0005008A40038
:100C68000A128A118127831203132008C900210858
:100C7800CA002208CB00080083160313BA01BB017F
:100C8800831603133B08803AB8003708803A3802C5
:100C9800031D502E36083A02031808008316031362
:100CA8002A082B04031D5A2E3C30972E8316031353
:100CB8002A032B04031D622E2E30972E0230831632
:100CC80003132A062B04031D6B2E2B30972E03309B
:100CD800831603132A062B04031D742E2730972E20
:100CE8000430831603132A062B04031D7D2E35308A
:100CF800972E0530831603132A062B04031D862E10
:100D08001730972E0630831603132A062B04031D6B
:100D18008F2E1B30972E0730831603132A062B04B9
:100D2800031D9A2E1E308312031387000D3083167D
:100D38000313B900FB30B800B80BA02EB90BA02ED6
:100D4800A52E013083160313BA070318BB0A003017
:100D5800BB070130AA070318AB0A0030AB072B0802
:100D6800803AFF0080307F02031DBC2E08302A0223
:100D7800031CC22E83160313AA01AB0183160313A7
:100D88002808013EA80029080318013E003EA900D2
:100D980028300A128A11EF270A128A1183160313C0
:100DA800290883120313EE008316031328088312FD
:100DB8000313ED00EF01EF0A0A128A110A220A1240
:100DC8008A11442E83160313BA01BB018316031339
:100DD8003B08803AB8003708803A3802031DF62EDF
:100DE80036083A0203180800831603132A082B044E
:100DF800031D002F3C303D2F831603132A032B04B9
:100E0800031D082F2E303D2F0230831603132A06A8
:100E18002B04031D112F2B303D2F03308316031392
:100E28002A062B04031D1A2F27303D2F0430831662
:100E380003132A062B04031D232F35303D2F0530BD
:100E4800831603132A062B04031D2C2F17303D2F5E
:100E58000630831603132A062B04031D352F1B3077
:100E68003D2F0730831603132A062B04031D402F3A
:100E78001E308312031387000D3083160313B90045
:100E8800FB30B800B80B462FB90B462F4B2F01305B
:100E980083160313BA070318BB0A0030BB07FF30D9
:100EA800AA070318AB0AFF30AB07AB1F5F2F073049
:100EB800AA000030AB002808FF3EA8002908031844
:100EC800013EFF3EA90028300A128A11EF270A12B4
:100ED8008A1183160313290883120313EE0083165D
:100EE8000313280883120313ED00EF01EF0A0A1217
:100EF8008A110A220A128A11EA2E8312031323087E
:100F080003198B2F220821042004031D9E2F003073
:100F1800A0000030A1000030A20008000130A500A8
:100F28002508A30701300310A20CA10CA00CFF3E5A
:100F3800031D972FFE3022050319B92F922F013078
:100F4800A5002508A3070130A007003003180130C9
:100F5800A107003003180130A20701300310A20CCA
:100F6800A10CA00CFF3E031DB22FFF302205031970
:100F7800CC2FA32F02302302031CCE2F0130A30253
:100F880001300310A00DA10DA20DFF3E031DC52FBA
:100F9800A11FBE2F2318D62FFF30A0057F30A10533
:100FA800FF30A2050310A30C2308A500A601A70182
:100FB80010300310A50DA60DA70DFF3E031DDD2F54
:100FC8002508A0042608A1042708A2042408031958
:100FD8000800A217080083120313A300A31723080D
:100FE8000A128A151A25080064008001840A04067A
:080FF800031900340406F92F6F
:1019BE0083120313A200091189100914220888004A
:1019CE00091509110730A1007D30A000A00BED2CE8
:1019DE00A10BED2C0800831203130619032D013001
:1019EE00F0007008FC070B307C02031C0800FA1C88
:1019FE0008007A14FA100800FC01FA140800831289
:101A0E0003138619172D0130F0007008FD070B30F7
:101A1E007D02031C0800FA1D08007A15FA11080051
:101A2E00FD01FA15080083120313A2000911891093
:101A3E00091022088800091509110D30A100FB308C
:101A4E00A000A00B282DA10B282D2D2D08000A1269
:101A5E008A15B9250A128A150A128A15F4250A1250
:101A6E008A150A128A1514270A128A150A128A155D
:101A7E0087260A128A15332D831203138501FF3030
:101A8E008316031385004130831203139F00023027
:101A9E00831603139F00533083120313A000A00B71
:101AAE00562D080083120313061A6C2D0130F00018
:101ABE00700883160313B0070B303002031C0800A6
:101ACE00FA1E08007A16FA12080083160313B001E4
:101ADE00FA16080083120313061B842D0130F00042
:101AEE00700883160313B1070B303102031C080074
:101AFE00FA1F08007A17FA13080083160313B101B0
:101B0E00FA170800831203132808A0002908A10061
:101B1E00A2018E30AB002B08A300A4010A128A1179
:101B2E008127831203132008A8002108A900220888
:101B3E00AA000800831603138701AA01AB01013026
:101B4E00B6000030B7000A128A1140260A128A1512
:101B5E00013083160313B6000030B7000A128A1143
:101B6E00E6260800831203130610FC3083160313B7
:101B7E0086000430810064308312031381008B16BB
:101B8E008B170A128A15A1250A128A150A128A15AE
:101B9E004325080083120313A401A501201CDD2D8B
:101BAE002208A4070318A50A2308A507013003106D
:101BBE00A20DA30DFF3E031DDE2D01300310A10C5F
:101BCE00A00CFF3E031DE52D20082104031DD52D7D
:101BDE002508A1002408A000080002308316031374
:101BEE009F00880189018312031388018901013046
:101BFE000A128A151A250A128A1538300A128A15FF
:101C0E001A250A128A150C300A128A151A250A127A
:101C1E008A1506300A128A151A250A128A150230FA
:101C2E000A128A151A250800700871040319482E25
:101C3E00F501F50AF11B2F2E01300310F00DF10DF9
:101C4E00FF3E031D242E0130F4007408F507212EEB
:101C5E0071087302031D352E70087202031C3D2E8F
:101C6E007008F2027108031CF303F3020130031033
:101C7E00F10CF00CFF3E031D3E2E0130F502031D4C
:101C8E002F2E7308F1007208F00008008312031360
:101C9E009E01831603139E01831203131F151F1932
:101CAE00562E1E08A200A3012208A5002308A60096
:101CBE001E08A200A3010310A20DA30D0310A20D76
:101CCE00A30D2208A5002308A600831603131E08E1
:101CDE0083120313A20006300310A20CFF3E031D55
:101CEE00732E25082204A3002608A4002308A500AD
:101CFE002408A6001F112608A1002508A000080030
:101D0E007A1F8E2E7A1302308312031386067A1CE4
:101D1E009C2E7A10013083160313B6000030B700E4
:101D2E000A128A11E6260A128A157A1DAA2E7A112D
:101D3E00013083160313B6000030B7000A128A1161
:101D4E0040260A128A157A1E08007A12013083166E
:101D5E000313A2070318A30A0030A3072218C02EEC
:101D6E00C830B6000030B7000A128A1140260A1297
:101D7E008A1583160313221C0800C830B6000030E3
:101D8E00B7000A128A11E62608000B1D072F0B1149
:101D9E0064308100013083160313A6070318A70AC7
:101DAE000030A707F430F0000130F1002708F300EF
:101DBE002608F2000A128A151B260A128A157008C6
:101DCE007104031DF32E83160313A601A7017B14C2
:101DDE0001308312031386060A128A15F2240A12A0
:101DEE008A150A128A1506250A128A150A128A15EA
:101DFE0059250A128A150A128A1571250A128A1590
:101E0E00790883120313FF0078088A00770884008C
:101E1E00760E8300FE0E7E0E09000A128A154D26DE
:101E2E000A128A15831203132108EE002008ED0012
:101E3E00EF01EF0A0A128A110A220A128A150A30D3
:101E4E000A128A11EF270A128A150A128A11242001
:101E5E000A128A15831203136808EE006708ED0054
:101E6E00EF010A128A110A220A128A156D300A121D
:101E7E008A15DF240A128A156D300A128A15DF249C
:101E8E000A128A1528300A128A11EF270A128A15A9
:101E9E0083160313290883120313EE00831603130C
:101EAE00280883120313ED00EF01EF0A0A128A11BC
:101EBE000A220A128A1539308312031387008F30D3
:101ECE0083160313B700DA30B600B60B6C2FB70BC0
:101EDE006C2F00000800831203135908DD005A0806
:101EEE00DE005B08DF0003105E0D5F0DE000600892
:101EFE00E6006608031D8C2F0030DC000030DB008E
:101F0E000030DA000030D90008005908DD005A0808
:101F1E00DE005B08DF0017300310DF0CDE0CDD0C7B
:101F2E00FF3E031D932F5D08E0006008E100DA1705
:101F3E00FF30D905FF30DA050030DB055908E20025
:101F4E005A08E3005B08E400E5018E30E602E61F66
:101F5E00CE2F6608803A8F3E0318BE2F0030DC006D
:101F6E000030DB000030DA000030D900080001300C
:101F7E000310E50CE40CE30CE20CFF3E031DBF2F37
:101F8E000130DD005D08E6070319E92FBE2F18307A
:101F9E006602031CE62F0030DC000030DB00003050
:101FAE00DA000030D90008000130DD000310E20D28
:101FBE00E30DE40DE50DDD0BDD2F0130E6026608C5
:101FCE00031DDB2F61080319F72FE209E309E4096A
:101FDE00E509E20A0319E30A0319E40A0319E50AFB
:101FEE006508DC006408DB006308DA006208D900CB
:021FFE000800D9
:02400E003AFF77
:00000001FF
